:020000040800F2
:10000000B0210120C5010008E90E0008F30C00082A
:10001000E50E000859030008F92900080000000057
:100020000000000000000000000000003D28000863
:10003000810A000800000000B915000861290008C5
:10004000DF010008DF010008DF010008DF01000810
:10005000DF010008DF010008DF010008DF01000800
:10006000DF010008DF010008DF010008DF010008F0
:10007000DF010008DF010008DF010008DF010008E0
:10008000DF010008DF010008DF010008DF010008D0
:10009000DF010008DF010008DF010008DF010008C0
:1000A000DF010008DF010008DF010008DF010008B0
:1000B000DF010008DF010008DF010008DF010008A0
:1000C000DF010008DF010008DF010008DF01000890
:1000D000DF010008DF010008DF010008DF01000880
:1000E000DF010008DF010008DF010008DF01000870
:1000F000DF010008DF010008DF010008DF01000860
:10010000DF01000861190008DF010008DF010008B5
:10011000DF010008DF010008DF010008DF0100083F
:10012000DF01000805070008DF0100087D0700085F
:10013000DF010008DF010008DF010008DF0100081F
:10014000DF010008DF010008DF010008DF0100080F
:10015000DF010008DF010008DF010008DF010008FF
:10016000DF010008DF010008DF010008DF010008EF
:10017000DF010008DF01000871060008DF01000848
:10018000DF010008DF010008DF010008DF010008CF
:10019000DF010008DF010008DF010008DF010008BF
:1001A000DF010008DF010008DF010008DFF810D0E0
:1001B00000F0A0F800F06EF800480047F14D00088C
:1001C000B02101200648804706480047FEE7FEE7C9
:1001D000FEE7FEE7FEE7FEE7FEE7FEE7FEE7FEE7F7
:1001E0008D290008AD0100082DE9F05F05460020CB
:1001F00092469B4688460646814640241BE0284698
:1002000041464746224600F064F853465A46C01A13
:10021000914110D311461846224600F04BF82D1A92
:1002200067EB01084F4622460120002100F042F80A
:1002300017EB00094E41201EA4F10104DFDC484603
:1002400031462A464346BDE8F09F40EA01039B073A
:1002500003D009E008C9121F08C0042AFAD203E03B
:1002600011F8013B00F8013B521EF9D27047D2B29F
:1002700001E000F8012B491EFBD270470022F6E78F
:1002800010B513460A4604461946FFF7F0FF20460C
:1002900010BD000070B5054C054D03E020682044FA
:1002A0008047241DAC42F9D170BD0000646D000888
:1002B000686D0008202A04DB203A00FA02F10020D1
:1002C00070479140C2F1200320FA03F31943904094
:1002D0007047202A04DB203A21FA02F000217047FF
:1002E00021FA02F3D040C2F120029140084319469E
:1002F00070470000064C074D06E0E06840F001033F
:1003000094E8070098471034AC42F6D3FFF752FF49
:10031000346D0008646D00081CB50121402001F017
:100320004DF94FF40070009001208DF8040000207A
:100330008DF8060002208DF8070000208DF80500DA
:100340006946044800F068FC4FF40071014800F071
:10035000CEFC1CBD0018024000BFFEE770B50025B2
:100360004FF4803400E0641E24B1802001F0CCFA08
:100370000028F8D014B90325284670BD40F2FF507C
:1003800001F07EFA2846F8E72DE9F04106460027FD
:100390004848056801E04748056805F04500002821
:1003A000F9D005F0040030B10327042001F068FA09
:1003B0003846BDE8F08105F0010028B10127012091
:1003C00001F05EFA3846F4E701F098FAB04202D044
:1003D00010273846EDE740F2FF5001F051FA0020B7
:1003E00001F0B2FA04463448204008B93846E0E744
:1003F00004F0004008B11C20DBE704F0804008B1A5
:100400000920D6E704F0005008B10A20D1E704F033
:10041000805008B10B20CCE704F0006008B10C203C
:10042000C7E704F0806008B10D20C2E704F08070D7
:1004300008B10E20BDE704F4000008B10F20B8E7B2
:1004400004F4800008B11020B3E704F4001008B1F0
:100450001120AEE704F4801008B11220A9E704F4DB
:10046000002008B11320A4E704F4802008B1142070
:100470009FE704F4003008B115209AE704F48030B7
:1004800008B1162095E704F4004008B1172090E762
:1004900004F4804008B118208BE704F4005008B140
:1004A000192086E704F0080008B11A2081E73846D1
:1004B0007FE70000342C014008E0FFFD70B5002507
:1004C0001048046801E00F48046804F04500002863
:1004D000F9D004F0040028B10325042001F0D0F97C
:1004E000284670BD04F0010028B10125012001F06B
:1004F000C7F92846F5E740F2FF5001F0C1F9284658
:10050000EFE70000342C014070B500250B4804686B
:1005100001E00A48046804F045000028F9D004F01E
:10052000040028B10325042001F0AAF9284670BD73
:1005300040F2FF5001F0A4F92846F8E7342C0140BE
:100540002DE9F04106460F464FF0000822480568A5
:1005500001E02148056805F045000028F9D005F0C4
:10056000040038B14FF00308042001F089F9404637
:10057000BDE8F08105F0010030B14FF00108012025
:1005800001F07EF94046F3E701F0B8F9B04203D03C
:100590004FF010084046EBE740F2FF5001F070F9D1
:1005A000002001F0D1F9044604F4604018B9200C91
:1005B00038804046DCE704F4005008B11320D7E748
:1005C00004F4804008B11020D2E704F4004008B1E0
:1005D0000F20CDE74046CBE7342C014070B5002614
:1005E0004FF480350F48046802E06D1E0D48046822
:1005F00004F0450008B9002DF7D115B104F004004E
:1006000028B10326042001F03BF9304670BD04F008
:10061000400028B10026402001F032F93046F5E7CD
:100620003046F3E7342C014030B10749096841F006
:100630000101054A116005E00349096821F0010143
:10064000014A1160704700000000055030B10749B1
:10065000096841F48041054A116005E003490968D1
:1006600021F48041014A11607047000000000550EC
:100670000848006900F0010050B1002006490860F8
:1006800006480068401C054908600120014948618E
:1006900070470000000005501000002018000020E6
:1006A00029B1074AD2680243054BDA6006E0044AE2
:1006B000D268C3439BB21A40014BDA607047000016
:1006C0000000055000210E4A126844F201039A43CB
:1006D0000B4B1A601A46116840F6F2729143028879
:1006E00043881A4383881A43C3881A4303891A43E9
:1006F00043891A4383891A431143014A11607047A1
:100700000000055010B51549154800F03DF90128C5
:1007100023D114480068401C12490860084600684C
:1007200011490988884207D110480068401C0F49C8
:10073000086000200B4908600D490988094A1268C1
:1007400051430C4A126802EB41000B49098800F042
:1007500013FC0249024800F02FF810BD0088001079
:1007600028640240100000206E6900081400002078
:100770006C690008300000207469000810B501F0B1
:10078000EBFD10BD0246094B9A4201D2084801E038
:100790000648103801F000531BB1064B0B40C360F4
:1007A00002E0044B0B40836070470000106402407D
:1007B000006002407D0F7D0F0246094B9A4201D234
:1007C000084801E00648103801F000531BB1064B01
:1007D0000B40C36002E0044B0B4083607047000095
:1007E00010640240006002407D0F7D0F21B102685D
:1007F00042F00102026003E0026822F0010202609E
:1008000070470000016821F00101016000210160D2
:1008100041608160C1600161212141614A49884292
:1008200004D13D21484A103A91608CE04649183184
:10083000884205D14FF47461434A103A916082E0D6
:1008400041493031884205D14FF474113E4A103A83
:10085000916078E03C494831884205D14FF074619D
:10086000394A103A91606EE037496031884204D1CC
:100870003649354A103AD16065E0334978318842CB
:1008800004D13349304A103AD1605CE02E499031AE
:10089000884204D12F492C4A103AD16053E02A49AA
:1008A000A831884205D14FF03D51274A103AD16016
:1008B00049E02949884204D13D21274A083A11607C
:1008C00041E025491831884205D14FF47461224A2C
:1008D000083A116037E020493031884205D14FF4A1
:1008E00074111D4A083A11602DE01B4948318842B5
:1008F00005D14FF07461184A083A116023E0164997
:100900006031884204D11149134A121F11601AE064
:1009100011497831884204D10D490F4A121F1160E4
:1009200011E00D499031884204D10A490A4A121F48
:10093000116008E00849A831884204D14FF03D51C8
:10094000054A121F11607047106002403D000020F0
:10095000400F002000003D201064024021B10268D9
:1009600042F02002026003E0026822F020020260EE
:100970007047014600200A6802F001020AB1012016
:1009800000E000207047000070B5024600200024FF
:100990000025124EB24201D2114B01E00F4B103B29
:1009A000104E0E4036B11E2606EAD124166806EA1D
:1009B000040502E0566906F0800501F000560EB10C
:1009C0005C6800E01C68084E344004EA010616B179
:1009D0000DB1012000E0002070BD00001064024055
:1009E000006002403C0F3C0F7D0F7D0F10B501F001
:1009F00080034BB122B1436943F08003436103E0BC
:100A0000436923F08003436180290BD02AB1036836
:100A100001F01E042343036004E0036801F01E0498
:100A2000A343036010BD000010B500220268134B01
:100A30001A40CC680B6823434C6923438C692343D9
:100A4000CC6923430C6A23434C6A23438C6A2343B7
:100A50004C6B23438C6B23431A430260426922F0A0
:100A60000702D1E90B3423431A4342610B69436007
:100A70004B6883608B68C36010BD00003F801CF032
:100A8000704700002DE9FC4107460D460026002472
:100A900000200090019008205B4908601020486009
:100AA000402088600020C8604FF4806008610846DC
:100AB00000F088FF1020FFF767FC044614B12046C1
:100AC000BDE8FC815148008800044F490860372088
:100AD0004860402088600020C8604FF48060086152
:100AE000084600F06FFF3720FFF74EFC04460CB1BC
:100AF0002046E5E74FF0FF30454908600820486090
:100B0000302088600220C860002008610120486110
:100B1000084600F0CDFE00203B49086033204860C5
:100B2000402088600020C8604FF48060086108465B
:100B300000F048FF3320FFF727FC04460CB12046A5
:100B4000BEE709E04FF4001000F0DEFE20B100F037
:100B500033FF4DF82600761C2E48006840F22A61CB
:100B600008400028EED0082000F0CEFE28B1082072
:100B700000F086FE04242046A2E7022000F0C4FE16
:100B800028B1022000F07CFE0224204698E72020B5
:100B900000F0BAFE28B1202000F072FE06242046A4
:100BA0008EE74FF4007000F0AFFE30B14FF40070EC
:100BB00000F066FE0724204682E740F2FF5000F076
:100BC0005FFE00980006009901F47F4140EA012091
:100BD000009901F47F0140EA1120009940EA116078
:100BE000686001980006019901F47F4140EA012004
:100BF000019901F47F0140EA1120019940EA116056
:100C0000286020465CE70000080100203800002032
:100C10001C010020342C0140F0B50A4600210023BD
:100C2000002400BF3DE0012505FA01F3156805EA3F
:100C300003049C4234D105684F000326BE40B543EF
:100C4000056015794E00B540066835430560157995
:100C5000012D02D01579022D16D185684F0003268B
:100C6000BE40B543856055794E00B5408668354332
:100C70008560456801268E40B54345604568967994
:100C80008E40B6B235434560C5684F000326BE406E
:100C9000B543C560D5794E00B540C6683543C560DB
:100CA000491C1029BFD3F0BDF0B5002300244D0727
:100CB000ED0E02FA05F3CE1000F1200555F826508E
:100CC0004E07F70E0F26BE40B543CF1000F12006A9
:100CD00046F82750CE1000F1200555F8265045EA79
:100CE0000304CE1000F1200545F82640F0BD4183F5
:100CF000704700BFFEE721B1028842F480620280A3
:100D000004E002884FF6FF331A400280704770B546
:100D100002460024002500230020958A138B1B0423
:100D200045EA030626F07F4404EA01068E4201D11B
:100D3000012000E0002070BD21B1028842F00102D4
:100D4000028004E002884FF6FE731A40028070476A
:100D500010B504461348844209D10121480500F02A
:100D60005DFC00214FF4001000F058FC18E00E4824
:100D7000844209D10121880500F050FC00214FF484
:100D8000800000F04BFC0BE00848844208D10121B0
:100D9000C80500F043FC00214FF4000000F03EFCC9
:100DA00010BD00000054004000580040005C0040AE
:100DB00021B1028842F48072028004E002884FF67A
:100DC000FF631A400280704721B1028842F400722A
:100DD000028004E002884FF6FF531A4002807047F9
:100DE0002DE9FF4704460D460026B1460427DFF8EB
:100DF000CC80A6884FF6C0700640684600F03EFCE6
:100E0000DDF808802E48B8FBF0F01FFA80F946EABA
:100E10000906A68020884FF6FE7108402080002633
:100E20002849286888420CD828684000B8FBF0F0B0
:100E300087B2042F00DA04273E4309F10100208421
:100E400027E0E8884BF6FF71884206D1286800EB5E
:100E50004000B8FBF0F087B209E0286800EBC00161
:100E600001EB0010B8FBF0F087B247F48047C7F3FE
:100E70000B0008B947F0010747F4004006434FF460
:100E8000967009FB00F04FF47A7190FBF1F0401C72
:100E90002084A683208840F00100208026884FF619
:100EA000F5300640A8886989084306432680A8894A
:100EB000298908432081BDE8FF87000000127A00DD
:100EC00040420F00A08601000146088AC0B2704768
:100ED00012B141F0010101E001F0FE010182704711
:100EE0000182704700BFFEE77047000070B5002127
:100EF00000230F22C4781CB3174C246804F4E06468
:100F0000C4F5E064C4F30721C1F10404E3B20A416B
:100F100044789C40E1B28478144021430C07210EB0
:100F20000E4C05786155047804F01F050124AC408F
:100F300005786D11AD0005F1E025C5F8004109E027
:100F4000047804F01F050124AC40054D06787611A5
:100F500045F8264070BD00000CED00E000E400E024
:100F600080E100E002490143024A1160704700003D
:100F70000000FA050CED00E030B58FB004460D46D8
:100F80000121880500F01AFB00211B48FFF72EFC09
:100F900000BF1948FFF7EDFC0028FAD14FF00070B0
:100FA000009016480190029400200390049505904B
:100FB0004FF4806006908000079040000890401138
:100FC000099040020A9004200B9003200C904FF0EF
:100FD00080700D9000200E9069460748FFF724FDB1
:100FE00001210548FFF702FC00BF0348FFF7C1FCE1
:100FF0000128FAD10FB030BD286402402800055006
:1010000000B587B0012140F2C91000F0D7FA2020C6
:10101000059002208DF8180003208DF8190000209B
:101020008DF81A0001208DF81B0005A96A48FFF70A
:10103000F3FD0D2205216848FFF736FE10200590CC
:1010400005A96648FFF7E8FD0D2204216348FFF774
:101050002BFE4020059005A96048FFF7DDFD0D221D
:1010600006215E48FFF720FE0820059005A95C4890
:10107000FFF7D2FD08215A48FFF739FE4FF4007000
:10108000059005A95748FFF7C7FD0D2209215548CE
:10109000FFF70AFE4FF48060059005A95148FFF75D
:1010A000BBFD0D220A214F48FFF7FEFD4FF4006003
:1010B000059005A94B48FFF7AFFD0D220B214948CC
:1010C000FFF7F2FD4FF48050059005A94548FFF762
:1010D000A3FD0D220C214348FFF7E6FD4FF48040AD
:1010E000059005A93F48FFF797FD0D220E213D48C9
:1010F000FFF7DAFD0820059005A93B48FFF78CFDB6
:101100000D2203213848FFF7CFFD4020059005A9A7
:101110003148FFF781FD0D2206212F48FFF7C4FD5E
:101120008020059005A92C48FFF776FD0D220721A8
:101130002948FFF7B9FD0121480500F05FFA0121B8
:10114000022000F03BFA042206212848FFF7ACFDFC
:10115000042207212548FFF7A7FD40200590022023
:101160008DF8180000208DF8190001208DF81A0064
:1011700000208DF81B0005A91C48FFF74DFD042237
:1011800006211A48FFF790FD8020059005A9174811
:10119000FFF742FD1648FFF7DBFD0020ADF8080021
:1011A0004BF6FF70ADF80A00FE20ADF80C004FF4CE
:1011B0008060ADF80E000001ADF8100049F6404027
:1011C000019001A90A48FFF70BFE01210848FFF72B
:1011D000B3FD07B000BD0000002002400000024047
:1011E00000180240001C0240000C024000040240B3
:1011F0000054004000B585B00121084600F0EEF92A
:101200000020ADF80400ADF806002020ADF808007D
:101210000020ADF80A00ADF80C00ADF80E00ADF8F6
:10122000100001A8FFF74EFAF02117480068FFF7F9
:10123000A3FE4FF4C060FFF795FE39208DF8000043
:1012400001208DF801008DF802008DF8030068463A
:10125000FFF74CFE012210210C48FFF7C7FB4E2080
:101260008DF8000000208DF8010001208DF80200AB
:101270008DF803006846FFF739FE01210846FFF7A5
:101280000FFA05B000BD00003000002028640240C5
:101290002DE9F04104460D46E11704EB91718910E8
:1012A000A4EB810111B10120BDE8F081E91705EB44
:1012B00091718910A5EB810109B10220F4E7204664
:1012C000E11704EB9171C1F38F072846E91705EB8D
:1012D0009171C1F38F060021FF2000F00DF9042168
:1012E000E02000F009F90021502000F005F9F9B2E2
:1012F0005A2000F001F9F1B25B2000F0FDF8C7F3CD
:101300000128042000EAA61040EA080841465C20B3
:1013100000F0F2F80021E02000F0EEF80020C3E732
:1013200010B504460121FF2000F0E6F81C2000F073
:101330000FF820701D2000F00BF860700A2000F0FC
:1013400007F8A0700B2000F003F8E07010BD00005B
:1013500070B5054642F21074002601214348FFF79C
:1013600027FD00BF05E02000A4F1010401D1FF200A
:1013700070BD3F493D48FFF7CAFC0028F3D000226A
:1013800061213A48FFF7A4FD42F2107405E0200005
:10139000A4F1010401D1FF20EAE736493348FFF701
:1013A000B6FC0028F3D0E9B23048FFF799FD42F2CD
:1013B000107405E02000A4F1010401D1FF20D7E75B
:1013C0002C49891C2948FFF7A2FC0028F2D02748A5
:1013D0001430008840F480602449143108800121D1
:1013E0002248FFF7E5FC42F2107405E02000A4F16A
:1013F000010401D1FF20BBE71D491C48FFF787FC12
:101400000028F3D0012261211848FFF761FD42F264
:10141000107405E02000A4F1010401D1FF20A7E72A
:101420001349491C1148FFF772FC0028F2D0002133
:101430000E48FFF760FC42F2107405E02000A4F1B2
:10144000010401D1FF2093E709493F310748FFF725
:101450005EFC0028F2D001210448FFF7B5FC0348E8
:10146000FFF732FD0646304682E700000054004098
:10147000010003008200070010B50121FF2000F0E9
:101480003BF88021122000F037F810BD10B5FFF7AF
:10149000F3FF002409E0174A02EB44025178154A91
:1014A00012F8140000F028F8641CDC2CF3D300249C
:1014B00009E0104A02EB440251780E4A12F8140077
:1014C00000F01AF8641CDC2CF3D3002409E0094A6C
:1014D00002EB44025178074A12F8140000F00CF8AD
:1014E000641CDC2CF3D34FF4B4714FF4F070FFF7AD
:1014F000CFFE10BD7669000870B505460E4642F273
:10150000107401212948FFF753FC00BF05E02000BB
:10151000A4F1010401D1FF2070BD25492348FFF744
:10152000F6FB0028F3D0002260212048FFF7D0FC12
:1015300042F2107405E02000A4F1010401D1FF2063
:10154000EAE71C491948FFF7E2FB0028F3D0E9B2AB
:101550001648FFF7C5FC42F2107405E02000A4F124
:10156000010401D1FF20D7E71249891C0F48FFF77A
:10157000CEFB0028F2D031460C48FFF7B1FC42F216
:10158000107405E02000A4F1010401D1FF20C3E79D
:101590000849891C0548FFF7BAFB0028F2D0012151
:1015A0000248FFF711FC0020B6E70000005400409D
:1015B00001000300820007007047000029B1064ABD
:1015C00012680243044B1A6004E0034A1268824323
:1015D000014B1A60704700003038024029B1064ABA
:1015E00012680243044B1A6004E0034A1268824303
:1015F000014B1A60704700003438024029B1064A96
:1016000012680243044B1A6004E0034A12688243E2
:10161000014B1A60704700004038024029B1064A69
:1016200012680243044B1A6004E0034A12688243C2
:10163000014B1A60704700002038024029B1064A69
:1016400012680243044B1A6004E0034A12688243A2
:10165000014B1A60704700004438024029B1064A25
:1016600012680243044B1A6004E0034A1268824382
:10167000014B1A607047000024380240F0B5002189
:1016800000220024022500260223324F3F6807F083
:101690000C0121B1042905D0082937D105E02E4FCE
:1016A000076036E02D4F076033E02A4F3F1F3F6849
:1016B000C7F38056274F3F1F3F6807F03F036EB1C7
:1016C000264FB7FBF3F7DFF88CC0ACF1040CDCF865
:1016D00000C0CCF3881C07FB0CF40CE01E4FB7FBDA
:1016E000F3F7DFF870C0ACF1040CDCF800C0CCF309
:1016F000881C07FB0CF4174F3F1F3F68C7F30147D7
:101700007F1C7D00B4FBF5F7076002E0124F076015
:1017100000BF00BF0F4F3F6807F0F0010909104FED
:101720007A5C0768D74047600A4F3F6807F4E0518A
:10173000890A0B4F7A5C4768D7408760054F3F683E
:1017400007F46041490B064F7A5C4768D740C76091
:10175000F0BD0000083802400024F40040787D010C
:10176000000000207CB50546002400200090019078
:1017700000F0EAF800F0007010B10E2420467CBDA5
:101780003D49098888B26946FFF77CF904460CB1E7
:101790002046F4E7012D36D1019800F4802000287E
:1017A0002ED035480088000434490860372048604E
:1017B000402088600020C860A8020861084600F048
:1017C00001F93720FEF7E0FD04460CB12046D6E7CC
:1017D00002202A49086006204860402088600020D6
:1017E000C8604FF480600861084600F0EBF80620FE
:1017F000FEF7CAFD04460CB12046C0E72046BEE70E
:1018000025242046BBE7019800F4803078B31A48BD
:10181000008800041949086037204860402088602B
:101820000020C8604FF480600861084600F0CAF8E4
:101830003720FEF7A9FD04460CB120469FE70020A3
:101840000E49086006204860402088600020C8607B
:101850004FF480600861084600F0B4F80620FEF7F7
:1018600093FD04460CB1204689E7204687E7FFE751
:101870002524204683E700003800002008010020CE
:101880000149086070470000382C01400149086098
:1018900070470000382C0140014908607047000083
:1018A000A080254201490860704700008C852542D0
:1018B00000210B4B02681A601B1D42681A601A1D3A
:1018C000116821F0F701D0E902231A4303691A4392
:1018D00043691A431143024A0832116070470000FD
:1018E000242C014010B50121C802FFF7B7FE0021EA
:1018F0004FF40060FFF7B2FE10BD00000148006821
:10190000C0B27047102C014001460020034A126803
:101910000A400AB1012000E000207047342C014049
:1019200001460020034A12680A400AB1012000E083
:1019300000207047342C01400248006800F003008A
:1019400070470000002C014008B5014600200090BF
:101950000248084400900098006808BD142C01401B
:1019600010B500F00DFD10BD29B1064A1268024302
:10197000044B1A6004E0034A12688243014B1A6068
:10198000704700003C2C014000210A4A116847F6CC
:10199000FF629143027D83681A4343681A43C36818
:1019A0001A4303681A4303691A431143014A116039
:1019B00070470000042C0140014800687047000097
:1019C000802C01400021094B02681A601A1D116821
:1019D0006FF30A01D0E901231A43C3681A4303696C
:1019E0001A431143014A121D11607047082C01402F
:1019F0000149086070470000002C014008B5012033
:101A000000909DF8000008BD70B5044600252048F0
:101A10000068032802D12725284670BD1C480068AD
:101A200038B11B480068012803D019480068022813
:101A30002CD1B4F5805F02D127252846EDE7B4F517
:101A4000006F13D10120FFF78DFE0546F5B9002088
:101A5000104908750860486088604FF40060C860ED
:101A6000002008610846FFF78FFF0FE00020FFF716
:101A700079FE054655B9002006490875086048609A
:101A80008860C86008610846FFF77EFF2846C4E703
:101A900034000020F0000020F0B5014600200022B4
:101AA000C04B1B7881F85630BF4B1B88A1F85430CF
:101AB000BE4B1B681A0E93090B70C2F383034B7065
:101AC00002F003038B70B94B1B68C3F30742CA7063
:101AD000B64B1B88C3F307220A71B44B1A784A71BC
:101AE0005B681A0E1301CB80B04B5B68C3F30742EF
:101AF000CB8843EA1213CB8002F00F030B72AB4B7F
:101B00009B88C3F30722D3094B72C2F380138B72F5
:101B1000C2F34013CB72C2F300130B7300234B7359
:101B2000A04B1B681BB19F4B1B68012B4FD1930728
:101B30001B0D0B619D4B1A790B6943EA82030B6104
:101B40009A4B9B681A0E0B6943EA92130B61C2F31E
:101B5000C2030B7502F007034B75944B9B68C3F3EC
:101B6000074253098B75C2F38203CB7593075B0F52
:101B70000B768E4B1B89C3F307220B7E43EAD213ED
:101B80000B760B695B1C0024C1E912340B7ED1E992
:101B900012469B1C012505FA03F3DF17A4FB035C27
:101BA00006FB03C304FB0733C1E912530C7A01237C
:101BB000A3400B650027D1E912560B6DA5FB034C22
:101BC00006FB03C305FB0733C1E9124336E0754B3F
:101BD0001B68022B32D1754B1A7993069B0A0B6155
:101BE000724B9B681A0E0B6943EA02230B616F4B21
:101BF0009B68C3F307420B6913430B616B4B1B8953
:101C0000C3F307220B6900245B1C44EB04074FF469
:101C100000760025A3FB064C07FB06C603FB056602
:101C20004FF480650027A4FB053C06FB05C504FBBB
:101C30000754C1E912344FF400730B65C2F38013EB
:101C400001F8193F93065B0E4B70584B1A7A4B788C
:101C500043EAD2134B7002F07F038B70534BDB6867
:101C60001A0ED309CB70C2F341130B71C2F3820376
:101C70004B7193071B0F8B714C4BDB68C3F307420F
:101C80008B7943EA92138B71C2F34013CB7100231B
:101C90000B7202F001034B72444B9B89C3F3072282
:101CA000D3098B72C2F38013CB72C2F340130B7350
:101CB000C2F300134B73C2F381038B7302F003036F
:101CC000CB733A4B1A7B53080B7401234B74384B7C
:101CD0001B681A0ECA741939354B1B68C3F30742C7
:101CE0001402CC85324B1B88C3F30722CB8D1343E0
:101CF000CB852F4B1A7814060C635B681A0E0B6B9E
:101D000043EA02440C632A4B5B68C3F307420B6B44
:101D100043EA02240C63264B9B88C3F307220B6B18
:101D200013430B63224B1A7934235A54204B9B687C
:101D30001A0E35235A541E4B9B68C3F307421406F0
:101D40008C631B4B1B89C3F307228B6B43EA024452
:101D50008C63174B1A7A8B6B43EA02248C63144B07
:101D6000DB681A0E8B6B13438B63114BDB68C3F379
:101D700007423C235B5C43EA12143C235C54130788
:101D80001C0DCC870A4B9B89C3F30722CB8F1343CF
:101D9000CB87074B1A7B540840235C540124412312
:101DA0005C54F0BD340000203800002068000020A2
:101DB0007800002008B500200090FFF71FFE0128E2
:101DC00009D1684600F0CAFB08B1FF2008BD0098A1
:101DD000C0F34320FAE7FF20F8E710B50424FFF72B
:101DE000E9FF0446042C01D1002010BDFF2C01D1D5
:101DF0000220FAE70120F8E71CB5002001904FF41B
:101E0000C060FFF7AFF831208DF8000001208DF899
:101E1000010000208DF8020001208DF803006846C3
:101E2000FFF764F83B208DF8000001208DF80100D9
:101E30006846FFF75BF800F06DF9FFF753FD00F01F
:101E4000BBF901909DF8040010B19DF804001CBD81
:101E500000F032F801909DF8040010B19DF80400E4
:101E6000F5E7002012490875086048608860C8607E
:101E700008610846FFF788FD0E48FFF70DFE019048
:101E80009DF8040040B90B48B0F854000204104615
:101E9000002100F047FB01909DF8040020B94FF4A9
:101EA0000060FFF7B1FD01909DF80400CFE700004E
:101EB000F00000209800002038B500240120009098
:101EC000FFF73AFD10B92524204638BD4448006884
:101ED000042828D000204349086002204860C02020
:101EE00088600020C8604FF4806008610846FFF7F2
:101EF00069FDFEF7E3FA04460CB12046E5E7002051
:101F0000FFF722FD384908600420FFF71DFD364920
:101F100048600820FFF718FD334988600C20FFF760
:101F200013FD3149C8602E48006858B12C4800683C
:101F3000012807D02A480068062803D028480068EE
:101F4000022816D10020274908600320486040205D
:101F500088600020C8604FF4806008610846FFF781
:101F600031FD69460320FEF7EBFA04460CB120462A
:101F7000ABE71B48006804282ED0BDF800001B49C1
:101F80000860BDF800000004164908600920486098
:101F9000C02088600020C8604FF480600861084657
:101FA000FFF710FDFEF78AFA04460CB120468CE7D5
:101FB0000020FFF7C9FC0E4908600420FFF7C4FCAD
:101FC0000B4948600820FFF7BFFC094988600C20D6
:101FD000FFF7BAFC0649C8600024204675E70000F8
:101FE0003400002008010020780000203800002084
:101FF0006800002030B58FB004460D464FF0FA510E
:102000001E48FEF7BFFB00211C48FEF7EFFB1B48F4
:10201000FEF7F8FB4FF00060009019480190029421
:102020000020039001200490002005904FF4806070
:1020300006908000079080000890002009904FF4DF
:1020400040300A9004200B9003200C904FF40000C5
:102050000D9080100E9069460848FEF7E5FC0122BD
:1020600010210648FEF7C2FC20210448FEF776FC4A
:1020700001210248FEF7BAFB0FB030BD58640240A0
:10208000802C014030B58FB004460D464FF0FA5118
:102090001E48FEF777FB00211C48FEF7A7FB1B48F4
:1020A000FEF7B0FB4FF000600090194801900294D9
:1020B0004020039001200490002005904FF48060A0
:1020C00006908000079080000890002009904FF44F
:1020D00040300A9004200B9003200C904FF4000035
:1020E0000D9080100E9069460848FEF79DFC012275
:1020F00010210648FEF77AFC20210448FEF72EFC4A
:1021000001210248FEF772FB0FB030BD5864024057
:10211000802C01401CB501210C20FFF74FFA0C2246
:1021200008212348FEF7C0FD0C2209212048FEF7B4
:10213000BBFD0C220A211E48FEF7B6FD0C220B2126
:102140001B48FEF7B1FD0C2211461948FEF7ACFD05
:102150000C2202211748FEF7A7FD4FF47060009093
:1021600002208DF805008DF8040000208DF806008F
:1021700001208DF8070069460D48FEF74DFD04204B
:10218000009069460B48FEF747FD4FF480500090E1
:1021900000208DF8070069460548FEF73DFD012146
:1021A000C802FFF74BFA01218805FFF707FA1CBDAB
:1021B00000080240000C0240F8B500200090002505
:1021C00000240026002776205F490875002008605B
:1021D00048608860C86008610846FFF7D5FB0320A7
:1021E000FFF706FC0120FFF757FB00205749086066
:1021F00048608860C8604FF4806008610846FFF757
:10220000E1FBFEF7ABF800909DF8000010B19DF8DF
:102210000000F8BD4FF4D5704C49086008204860B4
:10222000402088600020C8604FF480600861084644
:10223000FFF7C8FBFEF7D2F900909DF8000020B927
:10224000012043490860870712E000203F490860E9
:1022500037204860402088600020C8604FF48060CC
:1022600008610846FFF7AEFB3720FEF78DF80090B7
:1022700000203649086037204860402088600020F0
:10228000C8604FF4806008610846FFF79BFB372069
:10229000FEF77AF800909DF80000002851D13BE04D
:1022A00000202A49086037204860402088600020CC
:1022B000C8604FF4806008610846FFF783FB372051
:1022C000FEF762F800909DF8000010B19DF8000044
:1022D0009FE7204838431D49086029204860402076
:1022E00088600020C8604FF4806008610846FFF7EE
:1022F00069FBFEF709F900909DF8000010B19DF808
:10230000000086E70020FFF71FFB0546012080EA5A
:10231000D57080F00106641C1EB94FF6FF70844230
:10232000BED34FF6FF70844204D31B2000909DF86B
:1023300000006EE705F08040050002D0022004494D
:1023400008609DF8000064E7F0000020080100200C
:10235000340000200000108010B50748006800F02D
:10236000C05040B10120054908604FF0C2510248F9
:102370005830FEF707FA10BD006402404800002004
:1023800010B54FF48070FFF7CBFA50B1002025490B
:1023900008704FF48070FFF779FA01202249086035
:1023A00037E00220FFF7BCFA30B10220FFF76EFAE7
:1023B00002201C4908702CE00820FFF7B1FA30B168
:1023C0000820FFF763FA04201649087021E0202056
:1023D000FFF7A6FA30B12020FFF758FA062011497E
:1023E000087016E01020FFF79BFA30B11020FFF7BD
:1023F0004DFA05200B4908700BE04FF40070FFF711
:102400008FFA30B14FF40070FFF740FA072005490A
:10241000087000214CF23A30FFF7A6FA0148007824
:1024200010BD000040000020440000202DE9F047CE
:10243000814614461D46DDE9086800270020324920
:102440000870324908600120314908600020314994
:102450000860012140F22A30FFF786FA08FB06F1F6
:102460004846FFF7C7FD0120FFF71CFA2A4800681D
:10247000022808D106020202002320462946FDF761
:10248000B3FE04460D4625480660102023494860E7
:10249000402088600020C8604FF4806008610846D2
:1024A000FFF790FA1020FDF76FFF074617B1384687
:1024B000BDE8F0874FF0FF301949086008FB06F0CF
:1024C0004860902088600220C860002008610120D8
:1024D00048610846FFF7ECF91048046012200F49E4
:1024E0004860402088600020C8604FF48060086128
:1024F0000846FFF767FA1220FDF746FF07460FB1BF
:102500003846D5E73846D3E7400000204400002095
:102510003C0000202C2C0140340000200801002049
:102520001C01002070B504460D4600260A480460D0
:10253000072009494860402088600020C8604FF4A7
:10254000806008610846FFF73DFA0720FDF71CFF91
:102550000646304670BD00000801002070B50446F4
:10256000002514B92625284670BD0F4800880004B0
:102570000E4908600D204860402088600020C86037
:102580004FF4806008610846FFF71CFA0D20FDF744
:10259000FBFE05460DB12846E6E70020FFF7D4F91B
:1025A00020602846E0E700003800002008010020F5
:1025B00010B5002400200A4908600C204860402023
:1025C00088600020C8604FF4806008610846FFF70B
:1025D000F9F90C20FDF7D8FE0446204610BD000096
:1025E0000801002070B500256C1E00E0641E18482C
:1025F000006838B91748006820B91748007808B94A
:10260000002CF3D1002012490860441E00E0641E33
:102610001248006800F4005008B1002CF7D11048AF
:102620000068012805D1FFF7C3FF054600200C49CB
:1026300008600CB905B9042540F2FF50FFF720F9F6
:102640000548007810B10448007870BD2846FCE7C2
:10265000480000204400002040000020342C0140AD
:102660003C00002070B500256C1E00E0641E184878
:10267000006838B91748006820B91748007808B9C9
:10268000002CF3D1002012490860441E00E0641EB3
:102690001248006800F4805008B1002CF7D11048AF
:1026A0000068012805D1FFF783FF054600200C498B
:1026B00008600CB905B9042540F2FF50FFF7E0F8B7
:1026C0000548007810B10448007870BD2846FCE742
:1026D000480000204400002040000020342C01402D
:1026E0003C0000202DE9F047814615461E46DDE9F5
:1026F00008780024002049490870494908600120F1
:1027000048490860002048490860012140F21A3019
:10271000FFF72AF908FB07F14846FFF7B3FC012051
:10272000FFF7C0F841480068022808D107020202FA
:10273000002328463146FDF757FD05460E463C4826
:10274000076010203A494860402088600020C86037
:102750004FF4806008610846FFF734F91020FDF758
:1027600013FE044614B12046BDE8F08731480088C6
:1027700000042F490860372048604020886000200E
:10278000C8604FF4806008610846FFF71BF93720E6
:10279000FDF7FAFD04460CB12046E5E72448C0F8F1
:1027A0000080172022494860402088600020C860CF
:1027B0004FF4806008610846FFF704F91720FDF721
:1027C000E3FD04460CB12046CEE719480560192008
:1027D00017494860402088600020C8604FF480603E
:1027E00008610846FFF7EEF81920FDF7CDFD044615
:1027F0000CB12046B8E74FF0FF300F49086008FBE6
:1028000007F04860902088600020C86008610120BF
:1028100048610846FFF74CF82046A5E74000002035
:10282000440000203C0000202C2C014034000020FB
:1028300008010020380000201C0100207047000023
:102840000CB50020019000904148006840F48030B1
:102850003F49086000BF3E48006800F40030009027
:102860000198401C0190009818B90198B0F5A04F4C
:10287000F1D13748006800F4003010B10120009019
:1028800001E0002000900098012860D130484030DD
:10289000006840F080502E49403108602D480068A3
:1028A00040F440402B490860294808300068284916
:1028B000083108600846006840F400400860084697
:1028C000006840F4A05008602348091F0860081FF2
:1028D000006840F08070091F086000BF1C48006855
:1028E00000F000700028F9D01A48006840F48030E9
:1028F0001849086000BF1748406800F4803000287D
:10290000F9D01448006840F400301249086000BF54
:102910001048406800F400300028F9D040F20570FB
:102920000E4908600A480830006820F00300084992
:10293000083108600846006840F00200086000BFE7
:1029400003480830006800F00C000828F8D10CBDDE
:102950000038024000700040195A4007003C024015
:10296000084801684068491C40F10000054A1160B0
:1029700050600548006820B103480068401E0249C5
:1029800008607047280000202000002010B516487D
:10299000006840F47000144908601448006840F072
:1029A00001001249086000201049083108600F48F2
:1029B00000680F4908400D4908600E48091D08606D
:1029C000081F006820F48020091F086000200749C4
:1029D0000C31086003F078F8FFF732FF4FF0006029
:1029E00001498039086010BD88ED00E000380240E0
:1029F000FFFFF6FE1030002400BFFEE70FB40246D2
:102A000010B504A9034B039800F016F810BC5DF84C
:102A100014FB0000D14B000802E008C8121F08C1D7
:102A2000002AFAD170477047002001E001C1121F4F
:102A3000002AFBD1704700002DE9FF4F8DB09B4667
:102A40000F460446002606E025280BD05A460F996B
:102A50009047641C761C20780028F5D111B03046D0
:102A6000BDE8F08F0025A8460122984900E0054303
:102A700014F8013F203B02FA03F00842F7D1207816
:102A80002E2817D114F8010F45F004052A280ED07E
:102A90006FF02F022078A0F1300109290AD808EB45
:102AA000880102EB410100EB0108641CF2E757F8D2
:102AB000048B641C20786C280DD004DC4C2812D0C8
:102AC0006A2811D104E074280DD07A280CD10AE0CC
:102AD00045F4001507E0617845F48015814202D184
:102AE000641C05F58015641C2278692A45D008DC31
:102AF000002AB3D0582A69D0632A10D0642A08D19A
:102B00003BE0702A67D0732A13D0752A5CD0782AEC
:102B10005CD010465A460F999047761CD3E017F8C0
:102B2000040B8DF8000000208DF80100E94601201B
:102B300003E057F8049B4FF0FF3069074FF00005A2
:102B400001D40AE06D1C45450DDA8542FADB19F81F
:102B500005100029F6D106E06D1C8542FCDB19F852
:102B600005100029F8D12E4404E019F8010B5A464B
:102B70000F9990476D1EF8D2A5E00A200021CDE9FB
:102B80000801C5F3025002280DD001CFC117031E62
:102B900071F100030DDA4FF0000CD0EB0C006CEB80
:102BA00001012D2308E0FF1D27F00707F7E80201C8
:102BB000EDE72B0504D52B238DF8283001233BE0CE
:102BC000EB0739D02023F7E70A2000E0102000218E
:102BD000CDE9080107E01020002145F00405CDE90A
:102BE00008014FF00808C5F3025002280FD001CFAA
:102BF00000214FF0000A2B071FD5702A0DD0DDE908
:102C000008C38CF0100C5CEA030C0CD015E0FF1D1F
:102C100027F00707F7E80201EBE740228DF82820AC
:102C20004FF0010A0BE050EA010306D030238DF883
:102C300028308DF8292002239A46582A04D024A24D
:102C40000DF120090B9209E026A2F9E7DDE908233E
:102C5000FDF7CAFA0B9B9B5C09F8013D50EA0102A3
:102C6000F4D1ADEB090020300890680701D44FF093
:102C700001080899884502DDA8EB010000E000206A
:102C80008046002506E00AA85A46405D0F99904705
:102C90006D1C761C5545F6DB04E030205A460F9932
:102CA0009047761CB8F10001A8F10108F5DC05E0B9
:102CB00019F8010B5A460F999047761C0899481E3F
:102CC00008900029F4DC641CC5E600000928010016
:102CD0003031323334353637383961626364656692
:102CE0000000000030313233343536373839414254
:102CF0004344454600000000704710B502F09CFFB9
:102D000003F0B6FD10BD70B502460B465068006872
:102D10005668766800FB06F590680168002400BFDD
:102D200008E00878984201DB012000E000200870EC
:102D3000491C641CAC42F4D3002070BD2DE9F14F56
:102D400086B006984068008918280BD071A0CE2361
:102D50007A4A7BA100907E48FFF750FE002007B022
:102D6000BDE8F08F00F008F905464DB979A0D523EC
:102D7000724A73A100907648FFF740FE0020EEE70C
:102D8000362002F0B7FA8246BAF1000F0DD176A0D4
:102D9000DC236A4A6AA100906D48FFF72FFE28469F
:102DA00000F084FD00250020D9E72868C0F800A0C5
:102DB000012029684860362029688860069847689D
:102DC000D7F80080D7F804B008FB0BF002F092FAB5
:102DD00006466EB964A0EC23584A59A100905C489D
:102DE000FFF70CFE284600F061FD00250020B6E745
:102DF000A8680660A868C0F804B0A868C0F8088091
:102E0000002005900698006804680020059006E000
:102E100014F8010B0AF8010B0598401C0590059861
:102E20003628F5D368680490386903900498C0F890
:102E300000800498C0F804B0398904980181F968C9
:102E40000498C160DDE9030108614FF00009398988
:102E500001FB08F10398A0EBD1000290069880686E
:102E60000468029828BB002005901EE04FF000097E
:102E700016E06078C0EB001000EB8000A17801EB59
:102E8000410202EB011100EB41002178C1EB01117D
:102E90000844C0F3C71006F8010BE41C09F101094E
:102EA000C145E6D30598401C059005985845DDD3EB
:102EB0002DE00020059027E04FF0000916E0607833
:102EC000C0EB001000EB8000A17801EB410202EBA7
:102ED000011100EB41002178C1EB01110844C0F35E
:102EE000C71006F8010BE41C09F10109C145E6D33E
:102EF0004FF0000902E0641C09F1010902988145C4
:102F0000F9D30598401C059005985845D4D3284618
:102F100025E700006F6E6C7920737570706F7274A6
:102F20002032342062697473206465707468206292
:102F30006D7020696D61676500000000216C0008FC
:102F40005B25735D5B25645D3A202573200D0A00C7
:102F50005C0000206572726F7220696E20626D7075
:102F60005F637265617465006572726F7220696E6D
:102F7000206D616C6C6F630038B50C2002F0BAF9FB
:102F800004464CB92BA011232E4A2FA100903248A1
:102F9000FFF734FD002038BD0C2002F0ABF92060B3
:102FA000206868B923A01823264A27A100902A4840
:102FB000FFF724FD204601F019FE00240020EAE777
:102FC000202002F097F96060606880B919A025237D
:102FD0001C4A1DA100902048FFF710FD206801F059
:102FE00005FE204601F002FE00240020D3E70C205D
:102FF00002F080F9A060A06898B90EA02F23114AB2
:1030000011A100901448FFF7F9FC206801F0EEFDD3
:10301000606801F0EBFD204601F0E8FD002400208F
:10302000B9E70020216808606168C861A16808608C
:103030002046B0E76572726F7220696E206D616C18
:103040006C6F6300076C00085B25735D5B25645D36
:103050003A202573200D0A005C000020024690688B
:1030600001605068406893685860506800699368D0
:1030700098600020704700002DE9F04F87B081462E
:10308000D9F8040040690690D9F8040081690698CF
:10309000081A0590D9F80400D0F800804FEA88009B
:1030A00002F028F9054665B952A040F29933554A15
:1030B00055A100905848FFF7A1FC012007B0BDE8DA
:1030C000F08F4FEA880002F015F906466EB949A064
:1030D0004FF468734B4A4CA100904F48FFF78EFCA9
:1030E000284601F083FD0120E8E7D9F80400C66115
:1030F000D9F80800D0F800B0CDF810B0DDF810B065
:10310000002003900290002400BF1EE0069904985E
:1031100008FB010000EB040B05EB84000390002189
:1031200003980160002002900AE0039800689BF871
:103130000010084303990860C3440298401C0290A1
:10314000059902988842F0D3641C4445DED3A8F167
:10315000010A0027002446E07CB354451CD055F8F2
:103160002400012807D1601E55F8200018B9384600
:103170007F1C46F8204055F8240040BB601E55F8DF
:10318000200001282ED138467F1C46F820404FF6FB
:10319000FF7046F8270025E055F82A00B8B1AAF1DB
:1031A000010055F8200090B138467F1C46F820A059
:1031B0004FF6FF7046F8270014E0FFE7286838B1A3
:1031C000686828B1002238467F1C46F8202009E0B4
:1031D0002868012806D1686820B9002238467F1C7B
:1031E00046F82020641C4445B6D3284601F0FEFC76
:1031F000002063E76572726F7220696E206D616CEA
:103200006C6F6300596C00085B25735D5B25645D22
:103210003A202573200D0A005C0000202DE9F14FB3
:103220009CB01C9840681B901B98C0691A901A9F0C
:103230001C9880680068199000BF02CF4FF6FF709D
:103240008142FAD1002600201890179016908146EE
:10325000159014901390834682461290119010900E
:103260000F900E900D901B9800680C904FF0000886
:103270000025002001900024009036E11B98406951
:1032800015901B9880691490DDE91401A0EB0109E9
:103290001A98006818901A9840681790DDE917018D
:1032A000461AB9FBF6F0032807D3012001C7954859
:1032B00038601A9808301A9017E11698B04208D072
:1032C000139808B102F01CFF304602F0C5FC012043
:1032D00013904FEA460ACA4502D90120129006E02F
:1032E000CA4502D20220129001E0032012901298E7
:1032F000012804D002284ED003287CD199E0012473
:1033000046E0814850F82400006810901498401E50
:10331000199A0C9900FB0121189808440E904FF05F
:10332000000BD8462DE000EE108AF8EE400A00EEC1
:1033300010AAB8EE400A60EE800A00EE109AB8EECD
:10334000400A80EE801AB6EE000A31EE000ABCEEAA
:10335000C00A8DED110ADDE9100101FB06000F9096
:10336000002506E00E98405D0F99495D4840834472
:103370006D1CB542F6D30C990E98401A0E9008F1C8
:103380000108C845CFD302A840F824B0601CC4B2DD
:103390000A2CB6DB82E0012448E01498401E199AFA
:1033A0000C9900FB0121189808440E90564850F8DB
:1033B0002400006810904FF0000BD8462FE000EE7C
:1033C000108AF8EE400A00EE109AB8EE400A60EE5D
:1033D000800A00EE10AAB8EE400A80EE801AB6EE1F
:1033E000000A31EE000ABCEEC00A8DED110A0C9AFB
:1033F00011990E9800E050E001FB12000D9000259D
:1034000006E00D98405D1099495D484083446D1C6D
:10341000B542F6D310983044109008F10108D04519
:10342000CDD302A840F824B0601CC4B20A2CB4DB8F
:1034300034E001242EE01498401E199A0C9900FBE8
:103440000121189808440E902F4850F82400006875
:1034500010904FF0000BDDF8548013E0002506E0DB
:103460000E98405D1099495D484083446D1CB542FB
:10347000F6D30C990E98401A0E9010983044109084
:1034800008F1010814988045E8D302A840F824B058
:10349000601CC4B20A2CCEDB00E000BF00BF039862
:1034A00001900120009001240CE002A850F82410A3
:1034B0000198814204D202A850F82400019000949F
:1034C000601CC4B20A2CF0DB0098012804D00098DC
:1034D00001C70C48386003E0002001C70948386084
:1034E00016961A9808301A9000BF1A9800684FF67E
:1034F000FF7188427FF4C2AE02F002FE00201DB0D0
:10350000BDE8F08FFFFF0F00340100202DE9F04FE0
:1035100089B08346DBF8040000680890DBF80400FB
:10352000D0F804A0504601F0E5FE064666B9AFA00B
:1035300040F2F623B14AB2A10090B548FFF75EFA17
:10354000012009B0BDE8F08F4FEA8A0001F0D2FEF9
:103550008046B8F1000F0DD1A4A040F2FD23A74A88
:10356000A7A10090AA48FFF749FA304601F03EFBB8
:103570000120E6E74FEA8A0001F0BCFE07900798B9
:1035800080B99AA040F205339C4A9DA10090A048C2
:10359000FFF734FA304601F029FB404601F026FBE4
:1035A0000120CEE74FEA8A0001F0A4FE07469FB94A
:1035B0008EA040F20E33914A91A100909448FFF7FB
:1035C0001DFA304601F012FB404601F00FFB079850
:1035D00001F00CFB0120B4E7DBF80800006806905E
:1035E00000240020059000BF15E000203055059014
:1035F00008E0305DDDE90521895C08433055059818
:10360000401C0590089905988842F2D308990698BD
:1036100008440690641C5445E7D3AAF101000490C5
:103620004FF00009002003900025002475E00020E1
:1036300048F824000021079840F82410002C58D0A6
:10364000049884422FD0305D012807D1601E305C81
:1036500020B9484609F1010948F82040305D0028AA
:103660005AD1601E305C012856D10398411C039149
:10367000079941F82040A9F10100814658F820201F
:1036800028466D1C47F8202028466D1C47F820402E
:10369000484609F1010958F82000221A28466D1CF5
:1036A00047F8202038E00498305C08B30498401EA6
:1036B000305CE8B1DDE90301421C0392079A42F84D
:1036C0002010A9F10100814658F8202028466D1CE1
:1036D00047F8202028466D1C47F82040484609F14D
:1036E000010958F82000221A28466D1C47F82020AE
:1036F00012E03078012809D17078012806D1002223
:10370000484609F1010948F8202005E030780128F1
:1037100002D1707800B9641C641C544587D30398A7
:10372000814516D03BA040F25633344A34A1009074
:103730003748FFF763F9304601F058FA404601F088
:1037400055FA079801F052FA384601F04FFA012075
:10375000F7E6B9F1000F18D10398B0B92DA040F2E7
:103760006133264A26A100902948FFF747F93046E1
:1037700001F03CFA404601F039FA079801F036FAB8
:10378000384601F033FA0120DBE6681E054657F89B
:10379000200001900295AD1E0AE06D1E57F825101D
:1037A0000198814203D957F8250001900295AD1E7A
:1037B000002DF2D10298801E57F82000DBF804108B
:1037C00048610298401E57F82000DBF80410886119
:1037D000304601F00BFA404601F008FA079801F074
:1037E00005FA384601F002FA0020AAE66572726F07
:1037F0007220696E206D616C6C6F6300446C000810
:103800005B25735D5B25645D3A202573200D0A00FE
:103810005C000020666174616C206572726F7200DA
:103820002DE9F84F0246506803685068D0F804B09C
:10383000481E00F0FF0CABF1010EA3EB0C00009052
:103840004FF0000800269068D0F800900027B2469C
:10385000744626E0002520E04FF0000A03FB0490A8
:103860004719387800B117E04FF000080DE0002646
:1038700004E0B85D40EA0A0A701CC6B28E42F8DB6A
:10388000FF1A08F1010000F0FF088845EFDB03FB99
:10389000045009F800A000BF6D1C00988542DBD3DE
:1038A000641E6445D6D20020BDE8F88F10B50446EA
:1038B00094B1206801F096FD6068C06918B1616834
:1038C000C86901F093F9606801F090F9A06801F00F
:1038D00089FD204601F08AF910BD00002DE9F04174
:1038E0002DED068BADF5806D05460F466868406886
:1038F0006968096800FB01F6A868D0F800804FF4F9
:1039000080616846FCF7BAFC002400BF11E018F89B
:103910000400694601EB800090ED000AF7EE000A12
:1039200030EE200A18F8040001EB800080ED000A58
:10393000641CB442EBD3DFED378A00241FE06846F5
:1039400000EB8400D0ED000A00EE106AB8EE400AE9
:1039500080EE801A684600EB840080ED001A68460D
:1039600000EB8400D0ED000A00EE104AB8EE401AD9
:10397000B0EE680A01EE200AF0EE408A641CFF2CCB
:10398000DDD99FED249A9FED23AA9FED228ADFEDDA
:10399000219ADFED20AA002432E0684600EB840083
:1039A00090ED000A30EE080AB0EE408A684600EB5F
:1039B0008400D0ED000A00EE104AB8EE401AB0EED6
:1039C000690A01EE200AF0EE409AB0EE690A18EE9C
:1039D000880AF0EE40AA2AEEAA0AF7EE000A70EE74
:1039E000C80A60EE880A80EE201AB0EE419AB4EE62
:1039F000CA9AF1EE10FA02DDB0EE49AA3C70641CDE
:103A0000FF2CCAD900200DF5806DBDEC068BBDE8FA
:103A1000F0810000000000002DE9F84F82460C46BE
:103A20002078422802D160784D280AD02FA0522356
:103A3000334A34A100903748FEF7E0FF0120BDE88B
:103A4000F88FDAF8000004600120DAF8001048600E
:103A50003620DAF800108860DAF804900025123475
:103A6000E07805432D02A07805432D0260780543D8
:103A70002D0220780543C9F800500026E07906435E
:103A80003602A07906433602607906433602207971
:103A90000643C9F804604FF000084FF6FF7000EAD3
:103AA0000828E07A40EA08084FF6FF7000EA082884
:103AB000A07A40EA0808A9F808800027E07C0743BC
:103AC0003F02A07C07433F02607C07433F02207C0B
:103AD000123C0743C9F80C7005FB08F01F30400981
:103AE0008000C9F810000020A9E70000696E766127
:103AF0006C696420626D7020696D6167650000000B
:103B0000126C00085B25735D5B25645D3A202573AC
:103B1000200D0A005C0000202DE9F84F0246506895
:103B200003685068D0F804C0ACF10108A3F10109A2
:103B300000269068076800218A4601246CE0012570
:103B400067E0601E03FB00702844411E00262AE047
:103B5000087891F801B058450FDD087891F802B067
:103B6000584508DD487891F802B0584501DD48789D
:103B700012E0887810E008780EE0487891F802B0FA
:103B8000584508DD087891F802B0584501DD0878FD
:103B900002E0887800E048780DF8060019440AF140
:103BA000010A701CC6B2032ED2DB9DF800009DF8FE
:103BB00001B0584514DD9DF800009DF802B058454D
:103BC0000BDD9DF801009DF802B0584502DD9DF81F
:103BD000010019E09DF8020016E09DF8000013E0D6
:103BE0009DF801009DF802B058450BDD9DF80000DE
:103BF0009DF802B0584502DD9DF8000004E09DF8F4
:103C0000020001E09DF8010003FB045B07F80B00D4
:103C10006D1C4D4595D3641C444590D30020BDE8F0
:103C2000F88F00002DE9F74F86B08046894608EBF3
:103C300048001F2101EBC000400980000590059855
:103C400000FB09F004900498363001F053FB044661
:103C500064B974A040F2C353764A77A100907A48C1
:103C6000FEF7CCFE002009B0BDE8F08F0498363096
:103C7000039000BF422020704D206070039DA5700E
:103C80002D0AE5702D0A25712D0A65710020A0719D
:103C9000E071207260723620A0720020E072207302
:103CA00060732820A0730020E07320746074454680
:103CB000A5742D0AE5742D0A25752D0A65754D46E6
:103CC000A5752D0AE5752D0A25762D0A6576012044
:103CD000A0760020E0761820207700206077A0777B
:103CE000E07784F8200084F82100049D84F82250B5
:103CF0002D0A84F823502D0A84F824502D0A84F8C4
:103D00002550C42084F826000E2084F827000020C7
:103D100084F8280084F82900C42084F82A000E20A2
:103D200084F82B00002084F82C0084F82D0084F8FF
:103D30002E0084F82F0084F8300084F8310084F8D5
:103D4000320084F8330084F8340084F8350000BF72
:103D500008EB4800C1000598A0EBD10002904FF09D
:103D6000000A0027BB4604F13606029830BB00BFAC
:103D700021E00AFB08F0089901EB400B002714E052
:103D80001BF81700C006000E06F8010B3BF81700E1
:103D9000C0F34510800006F8010B3BF81700C00A7D
:103DA000C00006F8010B781C87B24745E8D30AF13A
:103DB00001001FFA80FACA45DBD330E04FF0000A59
:103DC0002BE00AFB08F0089901EB400B002714E0F8
:103DD0001BF81700C006000E06F8010B3BF8170091
:103DE000C0F34510800006F8010B3BF81700C00A2D
:103DF000C00006F8010B781C87B24745E8D30027BE
:103E000004E0002006F8010B781C87B20298874274
:103E1000F7D30AF101001FFA80FACA45D1D3204630
:103E200021E700006572726F7220696E206D616C0F
:103E30006C6F63006E6C00085B25735D5B25645DD1
:103E40003A202573200D0A005C00002070B504465E
:103E50000D4600202071401EE0622946204601F0F8
:103E6000E4FA08B1032070BD94F82E1294F82F02E2
:103E700041EA00204AF65521884201D00220F2E7AB
:103E800094F86900010694F8680041EA004194F84A
:103E9000670041EA002094F86610084320F07F4054
:103EA0000D49884201D10020DDE794F88500010624
:103EB00094F8840041EA004194F8830041EA00202C
:103EC00094F88210084320F07F400349884201D1D2
:103ED0000020C8E70120C6E74641540001B5044967
:103EE0000098086000BF024800680028FBD108BDA8
:103EF0002000002070B50446012514B1012C09D121
:103F000007E0FDF779FF10B925F0010500E0012574
:103F100002E001E0012500BF00BF284670BD00009F
:103F20002DE9F04705460E4614464FF0040915B139
:103F3000012D21D11FE0CEB1012E0BD0022E02D0D7
:103F4000032E14D103E04FF4007020800FE0012015
:103F500020600CE00C48D0F850C062460023D0E945
:103F600012713846FCF740F9206000E000BF00BF46
:103F70004FF0000903E002E04FF0040900BF00BF6A
:103F80004846BDE8F0870000980000202DE9F04782
:103F9000ADF5007D07460C4615461E464FF0040A57
:103FA0004FF0000817B1012F44D142E004F00300A4
:103FB00000B34FF0000913E02A466D1C0123694647
:103FC0000020FFF7E3FF8146B9F1000F00D00BE0BE
:103FD0004FF4007269462046FCF737F904F5007487
:103FE0003000A6F10106E7D100BF48460DF5007D7F
:103FF000BDE8F0874FF4007069020A460023CDE95E
:1040000000062046FEF712FA8046B8F1000F07D1ED
:10401000FEF7E8FA804600BFFDF7DFFE0028FBD17F
:10402000B8F1000F02D04FF0040A01E04FF0000A8F
:1040300003E002E04FF0040A00BF00BF5046D5E79E
:104040000146012011B1012904D102E020F0010054
:1040500002E001E0012000BF00BF70472DE9F047FA
:10406000ADF5007D07460C4616461D464FF0040A86
:104070004FF0000825B904200DF5007DBDE8F0875C
:1040800017B1012F41D13FE004F00300E8B14FF038
:10409000000913E04FF4007221466846FCF7D5F89A
:1040A0003246761C012369460020FFF7D7FF814680
:1040B000B9F1000F00D005E004F500742800A5F167
:1040C0000105E7D100BF4846D6E74FF40070710202
:1040D0000A460023CDE900052046FEF703FB804693
:1040E000B8F1000F07D1FEF7BDFA804600BFFDF71B
:1040F00074FE0028FBD1B8F1000F02D04FF0040A83
:1041000001E04FF0000A03E002E04FF0040A00BFB4
:1041100000BF5046B0E700002DE9F74F90B0914640
:104120001198012803DD132013B0BDE8F08F10A80B
:1041300000F088FD0F900F98002801DA0B20F3E7BC
:10414000FA490F9851F820500DB90C20ECE70020E7
:1041500028700F98C0B20C9000200B900C98FFF7BD
:10416000C9FE0190019800F0010008B10320DBE7CF
:10417000019800F0040008B10A20D5E705F10A0211
:1041800002210C98FFF7CCFE38B96889B0F5805F42
:1041900003DC6889B0F5007F01DA0120C4E700BFC5
:1041A00004AA01210C98FFF7BBFE10B904988028DF
:1041B00001D20120B8E7119808B1002000E03F20AB
:1041C00082460498A0EB0A000490A9F1010000EADD
:1041D000090008B14FF00009B9F1000F1AD1688940
:1041E000C11700EBD15149124FF4FA6292FBF1F181
:1041F000049AB2FBF1F10A914FF0000B01E00BF1D0
:10420000010BCB4830F81B100A988142F7D8C948F7
:1042100030F81B90B9F5007F02D36889B9FBF0F93B
:10422000B9F1000F01D14FF00109B9F1800F01D9A7
:104230004FF080090498B0FBF9F8012640F6F670BB
:10424000804500D302264FF6F670804500D3032642
:10425000032E0CD1082000EB880069890844401E19
:10426000B0FBF1F7202003900020029019E0012E0E
:1042700005D108EB4800401C4008C01C02E04FEA92
:104280004800001D074668893844401E6989B0FB14
:10429000F1F70120039068894FF48041B1FBF0F001
:1042A000029003985044079007983844069002996A
:1042B00006980844059005984844A0EB0A00049924
:1042C000884201D90E202FE709AA03210C98FFF795
:1042D00027FE28B9099818B10998B0F5004F01D9FF
:1042E00001200990099905980844401E491E8843F9
:1042F000099009990598081A0990032E08D109997F
:10430000039808440390099907980844079001E02E
:1043100009980744DDE90301081AC11B0298081A2D
:10432000B0FBF9F8022E03D140F6F670804505D3B4
:10433000032E05D14FF6F670804501D20E20F3E62C
:10434000032E02D10C200D9010E0012E06D104980E
:10435000B0F5803F02D201200D9007E00498B0F53F
:10436000803F01D2042000E006200D9000BF11988C
:1043700010B1F0200E9043E06A89002105F1300071
:1043800001F049F805F5F77401206070A070002075
:10439000E0700D982071FE206071049850443F2118
:1043A000B0FBF1F0FF21B0FBF1F009903F2109983B
:1043B00041EA9000A0710998E0713F20207200212D
:1043C0006172A172E172049820730498010A61730A
:1043D0000498010CA1730498010EE173552185F82E
:1043E0002E12AA2185F82F120123002205F1300197
:1043F0000C98FFF733FE08B1012095E6F8200E90E7
:1044000005F130046A890021204601F004F80B22EE
:1044100049A1204600F0F2FFB5F80AB084F80BB0CD
:104420004FEA1B21217384F80D900398A073039821
:10443000010AE17301202074032E01D1002001E064
:104440004FF40070834684F811B04FEA1B21A17429
:104450000498B0F5803F05D20498E0740498010AEE
:10446000217510E0049884F820000498C0F3072117
:10447000212001550498C0F30741222001550498DA
:10448000010E232001550E9860753F2020760021F3
:104490006176FF20A076E17684F81CA04FEA1A210D
:1044A00061774FEA1A41A1774FEA1A61E17700F08C
:1044B000C5FB0990032E4BD1099884F84300099855
:1044C000C0F30721442001550998C0F30741452056
:1044D00001550998010E4620015584F82470C7F350
:1044E000072125200155C7F3074126200155390E24
:1044F00027200155022084F82C0000212D20015591
:104500002E2001552F200155012084F83000312044
:104510000155062084F8320033200155802084F8AC
:104520004000292084F8420013220BE04C000020B8
:10453000086D00081E6D0008EBFE904D53444F536C
:10454000352E30008AA104F1470000F057FF1FE02C
:10455000099884F827000998C0F3072128200155FD
:104560000998C0F30741292001550998010E2A2016
:104570000155A775390AE175802084F824002920A7
:1045800084F8260013227FA104F12B0000F036FFEF
:10459000552084F8FE01AA2140F2FF1001550123A5
:1045A000524621460C98FFF759FD08B10120BBE5A2
:1045B000032E06D101230AF1060221460C98FFF7CB
:1045C0004DFD079808904FF0000B5FE06A890021CD
:1045D000204600F020FF0E980990032E14D0012EE3
:1045E00001D16D4801E06FF0FF000999084309907F
:1045F000099820700998000A60700998000CA07052
:104600000998000EE07019E0099860F0FF00099029
:10461000099820700998000A60700998000CA07031
:104620000998000EE070FF202071FF216171A171D7
:10463000E17120726172A1720F21E1720898411C30
:1046400002460123089121460C98FFF707FD08B1A7
:10465000012069E56A890021204600F0DCFE012086
:1046600009900EE00898411C02460123089121465A
:104670000C98FFF7F3FC08B1012055E50998401CA0
:1046800009900998B842EDD30BF1010BBBF1000F73
:104690009CD0032E01D1484600E00298834600BF1B
:1046A0000898411C02460123089121460C98FFF707
:1046B000D5FC08B1012037E5ABF101005FEA000B42
:1046C000EED1032E49D15220207060706120A0707D
:1046D0004120E070722084F8E401722140F2E5107C
:1046E00001554121401C01556121401C0155A8F193
:1046F000010084F8E801C0F3072140F2E9100155F8
:10470000A8F10100C0F307414FF4F5700155A8F17D
:104710000100010E40F2EB100155022084F8EC017B
:10472000002140F2ED100155401C0155401C01557F
:10473000552084F8FE01AA2140F2FF100155012303
:104740000AF1010221460C98FFF788FC01230AF1C7
:10475000070221460C98FFF781FC002211460C98B5
:10476000FFF7DEFB08B10120DEE40020DCE40000FE
:104770004E4F204E414D452020202046415433329B
:10478000202020004E4F204E414D45202020204625
:10479000415420202020200000FFFF00F7B582B008
:1047A00016460398019001A800F04CFA0546002D2A
:1047B00002DA0B2005B0F0BD0E4850F825400CB1D0
:1047C00000202070029810B1002002990870094959
:1047D000029841F82500029808B1012E01D000206E
:1047E000E8E7002203A902A800F006F807463846C9
:1047F000E0E700004C0000202DE9F74F8AB00021CF
:104800000A9801600B9800F01DFA09900998002899
:1048100003DA0B200DB0BDE8F08FE949099851F893
:1048200020400CB90C20F5E70A980460207878B194
:104830006078FFF705FC814609F0010040B90C984B
:1048400020B109F0040008B10A20E3E70020E1E705
:1048500000202070099860706078FFF74BFB81465C
:1048600009F0010008B10320D4E70C9820B109F049
:10487000040008B10A20CDE7607804F10A020221A1
:10488000FFF74EFB38B96089B0F5007F03DB608924
:10489000B0F5805F01DD0120BCE7002739462046E6
:1048A000FFF7D4FA0546012D01D09DBB32E000266A
:1048B0001AE004F5F77000EB061898F8040070B1E0
:1048C00098F80B00010698F80A0041EA004198F8B0
:1048D000090041EA002098F80810084300E0002091
:1048E00002A941F82600761C042EE2D3002606B168
:1048F000761E00BF02A850F8267027B13946204620
:10490000FFF7A4FA00E0022005461DB1701C064620
:104910000428EFD3032D01D101207BE70DB10D2039
:1049200078E73B20015D94F83C0041EA0020618972
:10493000884201D00D206DE74620015D94F84700C4
:1049400041EA002ABAF1000F0ED194F8570001068F
:1049500094F8560041EA004194F8550041EA0020DD
:1049600094F8541040EA010AC4F818A04020005DF1
:10497000E070E078012804D0E078022801D00D2012
:1049800048E7E0780AFB00FA3D20005DA070A078BF
:1049900018B1A078411E084008B10D203AE7412027
:1049A000015D94F8420041EA002020816089C1172E
:1049B00000EBD1614911228992FBF1F301FB132134
:1049C00009B10D2026E74320015D94F8440041EA37
:1049D00000200890089870B994F85300010694F8E4
:1049E000520041EA004194F8510041EA002094F855
:1049F0005010084308903E20015D94F83F0041EAC2
:104A000000200190019808B90D2003E76089C117C3
:104A100000EBD1614911228992FBF1F201995144D5
:104A200011440791DDE90710884201D20D20F1E61B
:104A3000DDE90710401AA178B0FBF1FBBBF1000FD4
:104A400001D10D20E6E6012540F6F670834500D33E
:104A500002254FF6F670834500D303250BF10200C3
:104A60006061E76101983844206207983844A06289
:104A7000032D16D1208908B10D20CBE694F85F00F4
:104A8000010694F85E0041EA004194F85D0041EAB5
:104A9000002094F85C100843606260698000069012
:104AA00014E0208908B90D20B4E6206A5044606201
:104AB000022D02D16069400007E0207D00F0010076
:104AC000616901EB410100EB510006906089401ED5
:104AD000069908446189B0FBF1F0A169884201D9C7
:104AE0000D2097E64FF0FF302061E060802060717C
:104AF000032D5AD194F8601094F8610041EA002027
:104B0000012852D1791C204600F08FFCE8BB002020
:104B1000607194F82E1294F82F0241EA00204AF6B0
:104B20005521884241D13320005D01063220005DCD
:104B300041EA00413120005D41EA002094F8301044
:104B400008432049884230D194F81702010694F8AE
:104B5000160241EA004194F8150241EA002094F857
:104B600014120843184988421FD194F81B02010609
:104B700094F81A0241EA004194F8190241EA00202F
:104B800094F818120843206100E00EE094F81F0228
:104B9000010694F81E0241EA004194F81D0241EA20
:104BA000002094F81C120843E06025700748008834
:104BB000401C80B205490880E08000202AE6000001
:104BC0004C00002052526141727241615400002039
:104BD000C2B2054B9A8000BF034A128802F08002DD
:104BE000002AF9D0704700000010014010B50028DD
:104BF00021D0114B0022001F196803E0814203D825
:104C00000A4649680029F9D152B11368841A9C42B6
:104C100004D1006818441060104602E0506000E0C3
:104C2000186039B102680B1A934203D10B681A4419
:104C300002604968416010BD600000200048704774
:104C40000000214A70B502464FF0FF301568E5B10B
:104C5000116800E0491C0D78202D02D30D783A2D03
:104C6000F8D10D783A2D0FD1146814F8015BA5F135
:104C700030030A2B07D28C4205D1022B03D21846EF
:104C80004D1C2946156070BD002000BFFBE730B504
:104C9000CC1000F1200353F824304C07E50E0F240C
:104CA000AC40A343CD1000F1200444F82530CC10D3
:104CB00000F1200353F824304C07E40E02FA04F408
:104CC0002343CD1000F1200444F8253030BD30B529
:104CD000CC1000F1200353F824304C07E50E0F24CC
:104CE000AC40A343CD1000F1200444F82530CC1093
:104CF00000F1200353F824304C07E40E02FA04F4C8
:104D00002343CD1000F1200444F8253030BDF0B528
:104D1000DDE9054506684FEA410C032707FA0CF761
:104D2000BE43066006684F0002FA07F73E4306607E
:104D3000476801268E40B7434760466803FA01F78B
:104D40003E43466086684FEA410C032707FA0CF79A
:104D5000BE43866086684F0004FA07F73E438660CC
:104D6000C6684FEA410C032707FA0CF7BE43C6603A
:104D7000C6684F0005FA07F73E43C660F0BDF0B5C0
:104D8000DDE9054506684FEA410C032707FA0CF7F1
:104D9000BE43066006684F0002FA07F73E4306600E
:104DA000476801268E40B7434760466803FA01F71B
:104DB0003E43466086684FEA410C032707FA0CF72A
:104DC000BE43866086684F0004FA07F73E4386605C
:104DD000C6684FEA410C032707FA0CF7BE43C660CA
:104DE000C6684F0005FA07F73E43C660F0BD0000F5
:104DF0002DE9FE43FBF790FAFCF702F902A8FCF755
:104E00008FFA9DF80A0026280BD0BAA02323C84A9F
:104E1000C8A10090CB48FDF7F1FD4FF0FF30BDE891
:104E2000FE83C948006800F065FA054655B9C7A079
:104E30002A23BF4ABFA10090C248FDF7DFFD4FF013
:104E4000FF30ECE7C5480560FCF7D4F9FCF71EFB22
:104E50000120FBF7FBFB0120FBF7E6FB4FF47A7028
:104E6000FFF73CF80020FBF7F1FB0020FBF7DCFB31
:104E70000021BB48FBF7BAFC0026B8480268B948D5
:104E80000188B9480088FEF7CDFE064676B9B7A07E
:104E90004223A74AA7A10090AA48FDF7AFFDAF485B
:104EA0000068FFF7A3FE4FF0FF30B8E700F0D8FA34
:104EB000012809D1A9480068FFF798FE3046FFF79E
:104EC00095FE4FF0FF30AAE7A4480068FFF78EFE7A
:104ED000AFA1B648FDF792FD0021B54A11605160BF
:104EE000FEF74AF8074697B9B2A06423904A91A109
:104EF00000909448FDF782FD3046FFF777FE0122CF
:104F0000B1A10020FFF74AFC4FF0FF3087E73146A0
:104F10003846FEF781FD68B13046FFF767FE384638
:104F2000FEF7C4FC0122A8A10020FFF737FC4FF0D8
:104F3000FF3074E706F136013846FEF78FF890B17E
:104F4000A2A074237A4A7BA100907E48FDF756FD0B
:104F50003846FEF7ABFC01229BA10020FFF71EFCA8
:104F60004FF0FF305BE74FF000083846FDF7E6FEF4
:104F70008046B8F1000F0DD19AA07E236C4A6DA136
:104F800000907048FDF73AFD3846FEF78FFC4FF071
:104F9000FF3044E73846FEF789FC4046FEF7BCFD8B
:104FA00068B197A08F23624A62A100906548FDF71F
:104FB00025FD4046FEF77AFC4FF0FF302FE700203A
:104FC000019001A94046FEF789FC68B193A09D239A
:104FD000574A58A100905B48FDF710FD4046FEF788
:104FE00065FC4FF0FF301AE79DF804104046FDF7CE
:104FF0008AFE68B190A0A3234D4A4EA1009051486B
:10500000FDF7FCFC4046FEF751FC4FF0FF3006E791
:1050100003214046FEF704FC68B18EA0B023444A49
:1050200044A100904748FDF7E9FC4046FEF73EFCEE
:105030004FF0FF30F3E64046FEF768FA68B18AA009
:10504000BD233B4A3BA100903E48FDF7D7FC4046BC
:10505000FEF72CFC4FF0FF30E1E64046FEF70CF87F
:1050600068B189A0CA23324A32A100903548FDF7C1
:10507000C5FC4046FEF71AFC4FF0FF30CFE6404635
:10508000FEF7CCF868B188A0D723294A29A100905F
:105090002C48FDF7B3FC4046FEF708FC4FF0FF300C
:1050A000BDE6D8F80400C46900BF02CC4FF6FF701B
:1050B0008142FAD104E004CC83A13C48FDF79EFC78
:1050C000834920688842F6D182A13848FDF796FCD2
:1050D0004046FEF7EBFB01223BA10020FFF75EFB01
:1050E0003348026843687CA13048FDF787FC002004
:1050F00095E600006E6F7420646574656374656482
:105100002063616D6572612C20706C656173652030
:10511000636865636B2074686520636F6E6E65639A
:1051200074696F6E20616761696E200D0A0000006E
:10513000646900085B25735D5B25645D3A20257317
:10514000200D0A005C000020706900086572726F13
:105150007220696E206D616C6C6F630030000020FE
:10516000286402406E6900086C6900086572726FFD
:105170007220696E20626D705F7267623536355FCE
:10518000746F5F726762383838200D0A00000000C3
:10519000626520696E207265636F676E697A696EF9
:1051A00067202E2E2E2E2E2E200D0A0058000020B5
:1051B000280000206572726F7220696E20626D7027
:1051C0005F63726561746500303A00006572726FEA
:1051D0007220696E20626D705F646174615F7061DE
:1051E000727365006572726F7220696E20626D70F5
:1051F0005F636F6E766572745F677261790000003D
:105200006572726F7220696E20626D705F6D656489
:1052100069616E5F66696C74657200006572726FB9
:105220007220696E20626D705F6765745F7468726A
:105230006573686F6C6400006572726F7220696ECE
:1052400020626D705F636F6E766572745F62696E07
:10525000617279006572726F7220696E20626D7082
:105260005F64696C617465006572726F7220696E4B
:1052700020626D705F64696769745F726F775F6CDD
:105280006F636174650000006572726F7220696EF1
:1052900020626D705F64696769745F636F6C5F6CD7
:1052A0006F636174650000006572726F7220696ED1
:1052B00020626D705F64696769745F7265636F67B0
:1052C0006E697A6500000000256420090000000076
:1052D000FFFF0F000D0A0000697420636F73747381
:1052E0002061626F757420256C6C646D73200D0AEB
:1052F00000000000F0B50B30154D20F00701002430
:10530000144A0FE003688B420BD38B4205D95E1A17
:1053100043184768C3E9006700E04368136002C0B0
:1053200004E0021D10680028ECD12046002802D1BC
:10533000286808B10020F0BD064A07481060074AF7
:10534000121A22F00702C0E9002401202860D7E7E2
:105350006400002060000020040000D0000080D025
:10536000F8B505460E4600240C20FFF7C3FF04469F
:105370004CB912A01D23154A15A100901848FDF73D
:105380003DFB0020F8BD002020606560A66005FBA5
:1053900006F0FFF7AFFF2060206868B907A031234F
:1053A0000A4A0BA100900E48FDF728FB2046FFF7A4
:1053B0001DFC00240020E5E72046E3E76572726FDC
:1053C0007220696E206D616C6C6F63002E6B00083B
:1053D0005B25735D5B25645D3A202573200D0A0013
:1053E0005C00002010B504463CB1206810B1206874
:1053F000FFF7FCFB2046FFF7F9FB10BD70B5034635
:105400000C4603E014F8015B03F8015B1500A2F100
:105410000102F7D170BD30B5034601E003F8011B6E
:105420001400A2F10102F9D130BD70B504460D4659
:105430000026E06AA84210D0204600F0D3FB0646C2
:105440005EB9607801232A4604F13001FEF79EFD23
:1054500010B14FF0FF350126E562304670BD000007
:1054600038B501222EA12F48FFF798F904460D2CDC
:105470002BD12DA13748FDF7C1FA0022114628A0F3
:10548000FEF74AFE044684B933A13248FDF7B6FA66
:10549000012223A10020FFF781F90446012220A167
:1054A0002048FFF77BF9044638E030A04FF47F73C3
:1054B000334A34A100903748FDF7A0FA012218A121
:1054C0000020FFF76BF9012038BD002C26D032A058
:1054D00040F203432A4A2BA100902E48FDF78EFA92
:1054E00022462EA12B48FDF789FA35A040F204434D
:1054F000234A24A100902748FDF780FA39A040F202
:1055000005431F4A1FA100902248FDF777FA0122A8
:1055100003A10020FFF742F90120D5E70020D3E7DF
:10552000303A0000801100206E6F2066696C6520A3
:1055300073797374656D20696E20636172642C20C9
:10554000726561647920746F20666F726D6174207A
:105550000A0000005800002066696E6973682066C2
:105560006F726D617474696E67200A006661696CA0
:10557000656420746F20666F726D617400000000B6
:10558000F06C00085B25735D5B25645D3A20257334
:10559000200D0A005C000020200000006661696C9C
:1055A000656420746F206D6F756E742C2065727247
:1055B0006F7220636F64653A202564200A00000042
:1055C000656E73757265206361726420696E7365C0
:1055D0007274656420746F2074686520626F6172F4
:1055E00064000000656E73757265203356335F5733
:1055F00049464920636F6E6E657474656420746FEC
:105600002033563320696E7374656164206F6620A1
:10561000474E44001CB5FE48006840F0FC00FC49C1
:1056200008600C220021FB48FFF751FB0C220121EE
:10563000F848FFF74CFB0C220221F648FFF747FB26
:105640000C220321F348FFF742FB0C220421F1480E
:10565000FFF73DFB0C220521EE48FFF738FB0C223B
:105660001146EC48FFF733FB0C220D21E948FFF708
:105670002EFB0C220E21E748FFF729FB0C220F21FD
:10568000E448FFF724FB0C220021E348FFF71FFB4F
:105690000C220121E048FFF71AFB0C220E21DF4803
:1056A000FFF715FB0C220F21DC48FFF710FB0C2243
:1056B0000021DA48FFF70BFB0C220121D748FFF746
:1056C00006FB0C220721D648FFF701FB0C2208211C
:1056D000D348FFF7FCFA0C220921D148FFF7F7FA6B
:1056E0000C220A21CE48FFF7F2FA0C220B21CC48FB
:1056F000FFF7EDFA0C221146C948FFF7E8FA0C2231
:105700000D21C748FFF7E3FA0C220E21C448FFF72A
:10571000DEFA0C220F21C248FFF7D9FA0C22082129
:10572000BE48FFF7D4FA0C220921BC48FFF7CFFA94
:105730000C220A21B948FFF7CAFA0C220621B948FF
:10574000FFF7C5FA0C220521B348FFF7C0FA0C2277
:105750000421B148FFF7BBFA0C220021B248FFF741
:10576000B6FA0C220B21AB48FFF7B1FA0C220F213D
:10577000A948FFF7ACFA0C220821A748FFF7A7FABF
:105780000C220721A748FFF7A2FA0C220121A44806
:10579000FFF79DFA0C220021A148FFF798FA00209C
:1057A000022103460A46CDE9001001469948FFF759
:1057B000E6FA0020022103460A46CDE90010012145
:1057C0009448FFF7DCFA0020022103460A46CDE99F
:1057D00000109048FFF7D3FA0020022103460A4642
:1057E000CDE9001003218B48FFF7C9FA0020022100
:1057F00003460A46CDE9001004218648FFF7BFFAA8
:105800000020022103460A46CDE900100521814807
:10581000FFF7B5FA0020022103460A46CDE9001041
:105820000C217C48FFF7ABFA0020022103460A4610
:10583000CDE900100D217748FFF7A1FA00200221E1
:1058400003460A46CDE900100E217248FFF797FA89
:105850000020022103460A46CDE900100F216D48C1
:10586000FFF78DFA0020022103460A46CDE9001019
:1058700001466948FFF783FA0020022103460A46E1
:10588000CDE9001001216448FFF779FA00200221D8
:1058900003460A46CDE900100E216048FFF76FFA73
:1058A0000020022103460A46CDE900100F215B4883
:1058B000FFF765FA0020022103460A46CDE90010F1
:1058C00001465648FFF75BFA0020022103460A46CC
:1058D000CDE9001001215148FFF751FA00200221C3
:1058E00003460A46CDE9001007214D48FFF747FA65
:1058F0000020022103460A46CDE90010082148484D
:10590000FFF73DFA0020022103460A46CDE90010C8
:1059100009214348FFF733FA0020022103460A46D3
:10592000CDE900100A213E48FFF729FA00200221A4
:1059300003460A46CDE900100B213948FFF71FFA4C
:105940000020022103460A46CDE900100C2134480C
:10595000FFF715FA0020022103460A46CDE90010A0
:105960000D212F48FFF70BFA0020022103460A46BB
:10597000CDE900100E212A48FFF701FA002002218C
:1059800003460A46CDE900100F212548FFF7F7F935
:105990000020022103460A46CDE9001008211F48D5
:1059A000FFF7EDF90020022103460A46CDE9001079
:1059B00009211A48FFF7E3F90020022103460A46AD
:1059C000CDE900100A211548FFF7D9F9002002217E
:1059D00003460A46CDE9001006211248FFF7CFF929
:1059E0000020022103460A46CDE9001005210A489D
:1059F000FFF7C5F90020022103460A46CDE9001051
:105A000004210548FFF7BBF90020022103460DE001
:105A1000303802400014024000180240000C0240DE
:105A200000100240001C0240000802400A46CDE976
:105A3000001001461F48FFF7A2F90020022103468B
:105A40000A46CDE900100B211B48FFF798F900200A
:105A5000022103460A46CDE900100F211748FFF73F
:105A60008EF90020022103460A46CDE900100821E4
:105A70001248FFF784F90020022103460A46CDE9C7
:105A8000001007210E48FFF77AF900200221034693
:105A90000A46CDE9001001210A48FFF770F90020FD
:105AA000022103460A46CDE9001001460548FFF7EA
:105AB00066F91CBD000802400014024000180240B4
:105AC000001C02400010024010B5FFF7A3FD424841
:105AD000006840F0010040490860404800686FF3EA
